:020000040800F2
:100000001851002061020008A3290008C920000837
:10001000A1290008F7030008CD3D000800000000FA
:10002000000000000000000000000000A101000826
:10003000F903000800000000FD0100080137000876
:100040007B0200087B0200087B0200087B0200089C
:100050007B0200087B0200087B0200087B0200088C
:100060007B0200087B0200087B0200087B0200087C
:100070007B0200087B0200087B0200087B0200086C
:100080007B0200087B0200087B0200087B0200085C
:100090007B0200087B0200087B0200087B0200084C
:1000A0007B0200087B0200087B0200087B0200083C
:1000B000C1370008CD370008D93700087B02000897
:1000C0007B0200087B0200087B0200087B0200081C
:1000D0007B0200087B0200087B0200087B0200080C
:1000E0007B0200087B0200087B0200087B020008FC
:1000F0007B0200087B0200087B0200087B020008EC
:100100007B0200087B020008E53700087B0200083C
:10011000E13A0008ED3A0008F13700087B020008D8
:100120007B0200087B0200087B0200087B020008BB
:100130007B0200087B0200087B0200087B020008AB
:100140007B0200087B0200087B0200087B0200089B
:100150007B0200087B0200087B0200087B0200088B
:100160007B0200087B0200087B0200087B0200087B
:100170007B0200087B0200087B02000800000000F0
:100180007B0200087B020008DFF810D000F004F9C1
:1001900000480047F5400008AFF3008018510020E8
:1001A0002C4B19680868B0E8F04F80F30988BFF35A
:1001B0006F8F4FF0000080F311887047000000003F
:1001C00008480068006880F308884FF0000080F35A
:1001D000148862B661B6BFF34F8FBFF36F8F00DF35
:1001E00000BF00BF08ED00E0DFF80C00016841F43B
:1001F00070010160704700BF88ED00E0EFF30980F7
:10020000BFF36F8F134B1A681EF0100F08BF20ED5D
:10021000108A20E9F04F106009B44FF0500080F3CD
:100220001188BFF34F8FBFF36F8F05F075F84FF054
:10023000000080F3118809BC19680868B0E8F04F25
:100240001EF0100F08BFB0EC108A80F30988BFF3CE
:100250006F8F7047D8000020EFF3058070470000D3
:100260000648804706480047FEE7FEE7FEE7FEE750
:10027000FEE7FEE7FEE7FEE7FEE7FEE7B137000830
:10028000890100082DE9F05F0546002092469B4653
:1002900088460646814640241BE02846414647469C
:1002A000224600F069F853465A46C01A914110D3CD
:1002B00011461846224600F050F82D1A67EB010847
:1002C0004F4622460120002100F047F817EB0009B5
:1002D0004E41201EA4F10104DFDC484631462A4687
:1002E0004346BDE8F09F40EA01039B0703D009E0C5
:1002F00008C9121F08C0042AFAD203E011F8013B12
:1003000000F8013B521EF9D27047D2B201E000F86A
:10031000012B491EFBD270470022F6E710B51346A9
:100320000A4604461946FFF7F0FF204610BD30B5D7
:100330000B46014600202022012409E021FA02F5A3
:100340009D4205D303FA02F5491B04FA02F528443D
:10035000151EA2F10102F1DC30BD202A04DB203A97
:1003600000FA02F1002070479140C2F1200320FA08
:1003700003F3194390407047202A04DB203A21FA06
:1003800002F00021704721FA02F3D040C2F12002AE
:100390009140084319467047064C074D06E0E06857
:1003A00040F0010394E8070098471034AC42F6D3BC
:1003B000FFF7EEFEF46200081463000830B58C18F5
:1003C00010F8012B12F00F0301D110F8013B1209B4
:1003D00006D110F8012B03E010F8015B01F8015B76
:1003E0005B1EF9D101E001F8013B521EFBD1A14295
:1003F000E6D3002030BDFEE770470000F0B5374877
:10040000374E9FED352AB0F90070B0F9020006F1C1
:10041000140303F1140403F1280507EB4002C7EBB2
:100420004001002F15D02CD000EE101AB8EEC00AF3
:1004300086ED020A00EE101AB8EEC00A83ED020A39
:1004400000EE102AB8EEC00A84ED020A00EE102A6F
:1004500013E000EE100AB8EEC00A86ED020A00EEC4
:10046000100AB8EEC00A83ED020A00EE100AB8EED8
:10047000C00A84ED020A00EE100AB8EEC00A85ED4B
:10048000020ADFED181A96ED020AB0EE421AF0EEFB
:10049000610A04F001FC86ED020A93ED020AB0EE57
:1004A000421AF0EE610A04F0F7FB83ED020A94EDC4
:1004B000020AB0EE421AF0EE610A04F0EDFB84EDA0
:1004C000020A95ED020AB0EE421AF0EE610A04F05B
:1004D000E3FB85ED020AF0BD00009643900000208A
:1004E000E4030020000096C32DE9F0472DED028BB8
:1004F000DFED538A534F07F114049FED538A04F143
:10050000140504F128064FF4AF7AE8B301287DD131
:10051000C7ED028AC4ED028A85ED028A86ED028A61
:1005200097ED000AF0EE680A01F0D0FD00EE100A27
:10053000B8EEC00A87ED010AD4ED020A94ED000A74
:1005400001F0FCFD00EE100AB8EEC00A84ED010ACD
:10055000D5ED020A95ED000A01F028FE00EE100A22
:10056000B8EEC00A85ED010AD6ED020A96ED000A42
:1005700001F054FE00EE100A5046B8EEC00A86EDB7
:10058000010A01F0BFFE00E01DE096ED010ABDEE9C
:10059000C00A10EE103A95ED010ABDEEC00A10EE49
:1005A000102A94ED010ABDEEC00A10EE101A97ED64
:1005B000010ABDEC028BBDEEC00ABDE8F04710EEAB
:1005C000100A02F0B5BBDFF884804FF4FA79B8F86E
:1005D0000410491C89B2A1F53060A8F80410B8389D
:1005E00008D1C8231A461946184602F0A1FB48460E
:1005F00003F012FDB8F80410A1F59852883A0ED114
:100600000021A8F804106FF0C70000E014E00346D2
:100610001A46114602F08CFB484603F0FDFCF0EE52
:10062000680AC7ED020AC4ED028A85ED028A86EDEA
:10063000028A97ED000A77E7BDEC028BBDE8F087F0
:1006400000004843E4030020000048C344000020A9
:1006500072B6FEE70021024602280BD0032A0FD013
:10066000042A11D0052804D1084A106800B240427B
:10067000116070474FF08042506A516200B270477B
:10068000034A106800B2F3E7024AEEE7240C004088
:10069000240400402408004070B50220FFF7DAFF70
:1006A00006460320FFF7D6FF05460420FFF7D2FFDA
:1006B00004460520FFF7CEFF642206FB02F100EEA0
:1006C000101A43495543B8EEC00AD1ED020A64231B
:1006D0005C4360EE201A91ED030A3E4981EE801AD8
:1006E00001EE905A01F1140201F12803F8EEE11A2B
:1006F00061EEA01AC1EE802A01EE904A64246043A4
:10070000F8EEE11AB5EEC01A81ED001A61EEA01AFA
:1007100081EE802A01EE900AC2ED002A01F13C0030
:10072000F8EEE11A61EEA00AC0EE801ADFED2A0AA7
:10073000B3EE0E0A83ED002AF1EE10FAC0ED001AB6
:100740000DD0B5EEC01AF1EE10FAB0EE403A02D27A
:1007500011EE203A01E001EE203A81ED003AF5EE8B
:10076000C02AF1EE10FA0DD0F5EEC02AF1EE10FA23
:10077000B0EE401A02D212EEA01A01E002EEA01A68
:1007800082ED001AB5EEC02AF1EE10FA0DD0B5EEEA
:10079000C02AF1EE10FAB0EE401A02D212EE201A80
:1007A00001E002EE201A83ED001AF5EEC01AF1EE18
:1007B00010FA0BD0F5EEC01AF1EE10FA02D211EEDB
:1007C000A00A01E001EEA00A80ED000A70BD000061
:1007D00044000020E40300200040A0452DE9F04142
:1007E0000446876D00F06AF9064694F83500002546
:1007F000022806D08020606584F834500120BDE8CE
:10080000F0812068016821F01601016020684169CB
:1008100021F080014161206C08B9A06C20B12068F2
:10082000016821F0080101602068016821F00101E0
:1008300001600CE000F042F9801B052807D9202058
:100840006065032084F8350084F83450D7E72068C9
:100850000068C007EED194F85C103F208840B86073
:10086000012084F8350084F834500020C7E790F860
:100870003510022903D080214165012070470521F0
:1008800080F835100068016821F001010160002046
:100890007047000070B5044600F010F90546601C72
:1008A00002D004480078044400F008F9401BA0423C
:1008B000FAD370BD300000202DE9F84FDFF8BCA15D
:1008C0000022012503264FF00F090AF1040BAAF1BB
:1008D000040E00BF0B6805FA02F42340A34270D156
:1008E0000F7907F00307012F01D0022F16D1876877
:1008F0004FEA420806FA08FC27EA0C07D1F80CC0B8
:100900000CFA08FC4CEA070CC0F808C04768A7437B
:100910000C79C4F3001494403C4344600C79E443E4
:10092000A4070AD0C4684FEA420C06FA0CF7BC438D
:100930008F6807FA0CF72743C7600C7904F00304AB
:10094000022C12D1D40800EB840CDCF820405707AD
:10095000FF0E09FA07F824EA0804D1F8108008FA13
:1009600007F848EA0408CCF8208004684FEA420CF3
:1009700006FA0CF7BC430F7907F0030707FA0CF7E8
:10098000274307604C6814F4403F70D03C4C276804
:1009900047F480472760246822F0030704F480446A
:1009A0000094384C07EB040CDCF8084897074FEA32
:1009B000177809FA08F7BC43334FB84202D1002731
:1009C00024E054E0314FB84201D101271EE0304FFE
:1009D000B84201D1022719E02E4FB84201D10327B6
:1009E00014E02D4FB84201D104270FE02B4FB8423D
:1009F00001D105270AE02A4FB84201D1062705E0B8
:100A0000284FB84201D1072700E0082707FA08F766
:100A10002743CCF80878DAF800405746D1F804C0EC
:100A20009C435FEACC2C00D51C433C60DBF80040C3
:100A30005F46D1F804C09C435FEA8C2C00D51C4370
:100A40003C60DEF800407746D1F804C09C435FEA82
:100A50008C3C00D51C433C60084F083F3C68D1F8F3
:100A600004C09C435FEACC3C00D51C433C60521C54
:100A7000102AFFF42FAFBDE8F88F0000083C0140BA
:100A800044380240003001400000024000040240AF
:100A900000080240000C0240001002400014024016
:100AA00000180240001C02400069084000D00120EC
:100AB00070470AB1816170470904FBE7014880680B
:100AC000704700003000002002488168027811441D
:100AD00081607047300000200B4810B5016841F478
:100AE00000710160016841F480610160016841F4B6
:100AF00080710160032000F09FF80F2000F006F8DD
:100B000000F050F8002010BD003C024030B5054612
:100B10001F4887B00024016841F01001016000689F
:100B200006A900F01000009001A800F031F9049827
:100B3000A8B100F04DF940001649174AB0FBF1F199
:100B40001648491E026040F2E732C0E90324C0E9BA
:100B50000114846100F0C2FB040003D015E000F032
:100B600037F9E9E70D4800F0FBFB04000DD1362012
:100B700000F034F8102D07D200222946362000F06C
:100B80003BF80748056000E0012407B0204630BD6F
:100B90004038024040420F00001000409C030020FB
:100BA000340000200C4882B0016841F480410160AB
:100BB000006800F4804000900748001F016841F081
:100BC000805101600068002200F0805000900F21E9
:100BD000901E02B000F010B844380240002809DB33
:100BE00000F01F02012191404009800000F1E02047
:100BF000C0F8001170470000F0B40E4B1B680C46A3
:100C0000C3F30223C3F10705042D00D90425191DE0
:100C1000072901D2002300E0DB1E012606FA05F1B8
:100C2000491E214099409E40761E16403143F0BC3B
:100C300003F0DEB80CED00E0064900F0070208689A
:100C40004FF6FF03184040EA0220034A10430860B1
:100C5000704700000CED00E00000FA052DE9F047B8
:100C60000E46050065D0DFF81481D8F80000F7B211
:100C700000F00700B04207D288F80070D8F80000F2
:100C800000F00700B04254D128683D4C810712D5CE
:100C9000400703D5206840F4E05020602878000722
:100CA00003D5206840F4604020602068A96820F0E7
:100CB000F000084320602878C0072DD030496868CC
:100CC0000839012812D0022813D0032811D009684E
:100CD000890700292DDA216821F0030101432160F1
:100CE000FFF7ECFE814641F2883A0EE0096889037D
:100CF000EFE709688901ECE7FFF7E0FEA0EB0901E7
:100D0000514502D90320BDE8F0872068696800F0EA
:100D10000C00B0EB810FEFD1D8F80010404601F085
:100D20000701B14207D90770006800F00700B04220
:100D300001D00120E7E72878400705D52068E96859
:100D400020F4E050084320602878000706D520688A
:100D5000296920F4604040EAC100206000F058F8A2
:100D60002168084AC1F30311515CC8400649086074
:100D700006480068FFF7CAFE0020C4E7003C0240B6
:100D800008380240746200083C0000203400002053
:100D90000F2202600C4A136803F0030343601368D8
:100DA00003F0F0038360136803F4E053C360126838
:100DB0004FF4E05303EAD20202610448006800F0F5
:100DC000070008607047000008380240003C0240FD
:100DD0000448054900680968044AC1F38221515C4E
:100DE000C84070473C000020083802408462000878
:100DF0000448054900680968044AC1F34231515C5E
:100E0000C84070473C000020083802408462000857
:100E1000154810B5006810F00C02144813D04110AA
:100E2000042A0FD0082A0ED10F4C241F22682368F1
:100E300002F03F025B0207D52068C0F38810A0FBD8
:100E4000010106E0084610BD2168C1F38811A1FB2D
:100E500000010023FFF716FA2168C1F30141491C84
:100E60004900B0FBF1F010BD083802400024F40046
:100E70002DE9F84F04006ED02078DFF84C93C007BE
:100E8000A9F104054AD009F104000168C1F3810108
:100E9000012908D00068C0F3810002280AD1D9F8DE
:100EA0000000400206D52868800337D56068002816
:100EB000E1D033E06068B0F5803F10D0B0F5A02FEE
:100EC000286810D020F480302860286820F4802022
:100ED00028606068A8B1FFF7F1FD06460DE02868BC
:100EE00040F48030F4E740F480202860F7E700BF4A
:100EF000FFF7E4FD801B642873D828688003F7D5CA
:100F00000CE0FFF7DBFD064605E000BFFFF7D6FD6E
:100F1000801B6428F0D828688003F7D42078DFF895
:100F2000AC8280074FF0000A3ED5A748001D01683B
:100F300011F00C0F08D00068C0F3810002280BD11B
:100F4000D9F80000400207D42868800716D5E06869
:100F5000012800D112E033E1E068B8B10120C8F8FF
:100F60000000FFF7ABFD064605E000BFFFF7A6FD5A
:100F7000801B0228C0D828688007F7D52868216917
:100F800020F0F80040EAC10028600DE0C8F800A099
:100F9000FFF794FD064604E0FFF790FD801B022852
:100FA0001FD828688007F7D42078000722D5864FFD
:100FB00087486169703771B101210160FFF77EFDDB
:100FC000064604E0FFF77AFD801B022809D838683E
:100FD0008007F7D50EE0C0F800A0FFF76FFD0646CA
:100FE00005E082E0FFF76AFD801B02287DD83868A3
:100FF0008007F7D42078400768D5DFF8CCB1002708
:101000000BF13C0BDBF80000C0000BD4DBF8001048
:1010100041F08051CBF80010DBF80000012700F010
:10102000805000906B4E3068C00510D4306840F49A
:1010300080703060FFF742FD009005E0FFF73EFD55
:101040000099401A022850D83068C005F6D55E4E87
:10105000A0686C3601280FD00528306810D020F029
:1010600001003060306820F004003060A068B8B142
:10107000FFF724FD00900FE0306840F00100F4E736
:1010800040F004003060F7E7FFF718FD0099411ABF
:1010900041F28830814266D830688007F4D50EE08E
:1010A000FFF70CFD009007E0FFF708FD0099411ADB
:1010B00041F28830814256D830688007F4D42FB18D
:1010C000DBF8001021F08051CBF80010A069C8B304
:1010D0003D49091D0968C1F3810102294AD002284E
:1010E000504607D0C8F8600000E03CE0FFF7E6FC9F
:1010F00004463BE04746C8F86000FFF7DFFC0646C1
:1011000005E000BFFFF7DAFC801B02282BD8286817
:101110008001F7D4D4E907010843A16A2E4A49089F
:1011200002EB0141626A41EA8211084394F82C10F3
:1011300040EA0161C9F8001001203866FFF7BEFCE3
:10114000044606E03EE000BFFFF7B8FC001B0228A3
:1011500009D828688001F7D534E000BFFFF7AEFC5E
:10116000001B022802D90320BDE8F88F28688001FF
:10117000F4D427E00128F7D0D9F80000E26900F4A0
:10118000800191421CD1226A00F03F01914217D1A7
:1011900047F6C071626A0140B1EB821F10D1A26AAA
:1011A0004FF0FF3300F4403103EB5202B1EB024F3A
:1011B00006D194F82C1000F07060B0EB016F01D0F4
:1011C0000120D1E70020CFE7043802400000474269
:1011D000800E4742007000400000FFFF4FF0E0210A
:1011E0000428086903D020F004000861704740F02B
:1011F0000400FAE77047704710B590F83C20012AC8
:1012000022D0012280F83C20CA688C6822F4407207
:1012100022434C6822F4806222430C6822F400626C
:1012200022430C6922F4805222434C6922F400527A
:101230002243C969002322F480420A4301684A64B8
:1012400080F83C30002010BD022010BD70B590F831
:101250003C20012A32D0012480F83C40022280F850
:101260003D2003685A689D6822F070060A68324380
:101270005A60134B02689A4214D0B2F1804F11D0D9
:10128000104B9A420ED0104B9A420BD00F4B9A4201
:1012900008D00F4B9A4205D00E4B9A4202D00E4B0B
:1012A0009A4204D1496825F080031943916080F87F
:1012B0003D40002180F83C10084670BD022070BD02
:1012C000000001400004004000080040000C004005
:1012D00000040140004001400018004010B5040027
:1012E00003D094F83D0010B107E0012010BD0020AC
:1012F00084F83C00204600F01FF8022084F83D00EE
:10130000211D206802F07AFA012084F8460084F852
:101310003E0084F83F0084F8400084F8410084F8DF
:10132000420084F8430084F8440084F8450084F8BF
:101330003D00002010BD000008B500680649884245
:1013400008D10648016841F002010160006800F020
:101350000200009008BD0000000401404438024033
:1013600090F83D10012901D001207047022180F83A
:101370003D100168CA6842F00102CA600068114964
:10138000884214D0B0F1804F11D00F4988420ED05E
:101390000E4988420BD00E49884208D00D49884238
:1013A00005D00D49884202D00C49884204D1816899
:1013B00001F00701062903D0016841F00101016035
:1013C0000020704700000140000400400008004079
:1013D000000C0040000401400040014000180040A3
:1013E00070B5044690F83C000025012817D001266E
:1013F00084F83C60022084F83D002068826822F076
:10140000770222F47F4282600868502838D00DDCD1
:1014100020284FD005DC90B3102811D14AE00220DB
:1014200070BD302846D040280AD13BE060282FD03C
:1014300070280DD0B0F5805F03D0B0F5005F12D0FA
:10144000012584F83D60002084F83C00284670BDEA
:10145000CB68D1E90121206802F049FA206881684F
:1014600041F0770109E0CB68D1E90121206802F061
:101470003EFA2068816841F480418160E1E719E02B
:10148000CA684968206802F007FB5021206806E01E
:10149000CA684968206802F010FB6021206802F0E9
:1014A00030FACEE7CA684968206802F0F5FA4021B0
:1014B0002068F4E7226801461046F0E72DE9F04184
:1014C0000D46040003D094F83D0018B108E0012057
:1014D000BDE8F081002084F83C00204600F040F890
:1014E000022084F83D002068816844F2070291439D
:1014F0008160211D206802F081F92268906891695D
:10150000166A2B68AF69034340F20330814341EA16
:101510000721A868EF6908434FF6FC418843E96852
:1015200040EA0720014328692F6A000140EA07309A
:10153000084369686D6926F0AA0646EA051529433D
:1015400093602268906154F8460B0162012004F810
:101550001F09E0752076E0762077A0750020B7E7B8
:1015600070B586B0044614216846FEF7D5FE56498C
:1015700023680024544A103902255448B3F1804F9F
:1015800026D0534EB34256D1136843F00203136082
:10159000126802F0020205920A6842F001020A6033
:1015A000096801F001010591C0210091CDE90154C4
:1015B0006946CDE90345FFF77FF900220F211D2081
:1015C000FFF71AFB5FF01D00FFF708FB06B070BDC8
:1015D000136843F001031360126802F001020592E0
:1015E0000A6842F001020A600A6802F001020592EC
:1015F0000A6842F002020A600968012601F002014D
:10160000059120210091CDE90154CDE903466946B9
:10161000FFF752F908200090CDE90154CDE90346C7
:1016200069462C48FFF748F900220F211C20FFF7DC
:10163000E3FA1C20C8E7284EB34221D1106840F0DD
:1016400004001060106800F004000590086840F085
:10165000080008600868694600F0080005904FF42B
:1016600040500090CDE901541C48CDE90345FFF7F7
:1016700023F900220F211E20FFF7BEFA1E20A3E748
:10168000174EB342A2D1136843F0080313601268E7
:1016900002F0080205920A6842F001020A60096835
:1016A00001F00101059103210091CDE90154694642
:1016B000CDE90345FFF700F900220F213220FFF7A3
:1016C0009BFA322080E700004038024000000240D0
:1016D000000400400004024000080040000C0240EA
:1016E000000C004070B590F83E60044690F83F5002
:1016F00090F8423090F84320022021B104290ED006
:10170000012E1BD114E0012E18D1012B16D184F823
:101710003E0084F8420001220021206820E0012DD3
:101720000CD1012A0AD184F83F0084F8430014E068
:10173000012D03D1012B01D1012A01D0012070BD5F
:1017400084F83E0084F83F0084F8420084F84300A7
:1017500001220021206802F0BDF801220421206846
:1017600002F0B8F82068016841F001010160002032
:1017700070BD70472DE9F04104460068C6680569F0
:101780004FF00007A90713D5B10711D5F91E016164
:1017900001202077206880698007204602D0FFF76B
:1017A000E8FF04E000F0C2F8204600F067F9277770
:1017B000680716D5700714D521686FF0040008611A
:1017C000022020772068806910F4407F204602D0F4
:1017D000FFF7CFFF04E000F0A9F8204600F04EF933
:1017E0002777280715D5300713D521686FF0080033
:1017F0000861042020772068C0698007204602D055
:10180000FFF7B7FF04E000F091F8204600F036F94A
:101810002777E80616D5F00614D521686FF010007A
:101820000861082020772068C06910F4407F2046B6
:1018300002D0FFF79EFF04E000F078F8204600F0A9
:101840001DF92777E80708D0F00706D021686FF068
:1018500001000861204600F077F9280608D5300617
:1018600006D521686FF0800008612046FFF7C2FCB2
:10187000680608D5700606D521686FF0400008613B
:10188000204600F06BF9A8060AD5B00608D52168F5
:101890006FF0200008612046BDE8F041FFF7ABBCC7
:1018A000BDE8F08110B586B0044614216846FEF705
:1018B00033FD2368184C002118480222A34212D19C
:1018C000036843F010030360006800F01000059007
:1018D0004FF4D4400090CDE901210120CDE903105F
:1018E00069460F4813E00F4CA34212D1036843F03E
:1018F00004030360006800F004000590402000909D
:10190000CDE901210320CDE9031069460648FEF721
:10191000D3FF06B010BD0000000001403038024087
:10192000001002400004014000080240704770B5FA
:10193000044690F83C0000260D4601280FD00120F7
:1019400084F83C006AB1042A1DD0082A2FD00C2A42
:101950003FD00126002084F83C00304670BD0220B4
:1019600070BD206801F0D6FF2068816941F0080150
:1019700081612068816921F00401816120688169A9
:101980002A69114311E0206801F0F4FF20688169A1
:1019900041F4006181612068816921F48061816185
:1019A000206881692A6941EA02218161D2E72068C1
:1019B00002F016F82068C16941F00801C161206891
:1019C000C16921F00401C1612068C1692A6911431C
:1019D00011E0206802F038F82068C16941F4006124
:1019E000C1612068C16921F48061C1612068C16959
:1019F0002A6941EA0221C161ACE710B5040003D0B5
:101A000094F83D0010B107E0012010BD002084F8DB
:101A10003C00204600F01EF8022084F83D00211D05
:101A2000206801F0EBFE012084F8460084F83E00B7
:101A300084F83F0084F8400084F8410084F84200B4
:101A400084F8430084F8440084F8450084F83D009D
:101A5000002010BD08B500680649884208D1064834
:101A6000016841F001010160006800F00100009090
:101A700008BD0000000001404438024070470000EB
:101A800010B50446022249B104290ED0082913D00A
:101A900094F84100012816D0012010BD94F83E00B2
:101AA0000128F9D184F83E200FE094F83F00012886
:101AB000F2D184F83F2008E094F840000128EBD1EF
:101AC00084F8402001E084F841200122206801F0E0
:101AD00001FF16492068164A884201D0904203D17E
:101AE000436C43F4004343642068884213D0B0F150
:101AF000804F10D00F4988420DD00F4988420AD03C
:101B00000E49884207D0904205D00D49884202D044
:101B10000C49884204D1816801F00701062903D0ED
:101B2000016841F001010160002010BD000001408A
:101B3000000401400004004000080040000C004088
:101B4000004001400018004000680349884201D16C
:101B5000FEF7BABF704700000010004070477047A2
:101B600070470000F8B5016804460868CA684B6908
:101B700010F00F0F4FF0000559D003F0010602F4EA
:101B80009077374365D0C10705D0D10503D5616C87
:101B900041F001016164410705D5D90703D0616CAB
:101BA00041F002016164810705D5D90703D0616C5A
:101BB00041F004016164010707D502F020013143BF
:101BC00003D0616C41F008016164616C00293AD076
:101BD000800604D5900602D5204601F0BCFF20689F
:101BE0004069616CC0F38010090700D460B32046DF
:101BF00001F08AFF20684069400621D52068143032
:101C000050E8001F21F0400140E80012002AF5D101
:101C1000E06BA8B16E490165E06BFEF728FE002875
:101C200011D0E06B016D01B0BDE8F04008478306BC
:101C30000FD593060DD52046BDE8F84001F08BBFC7
:101C40002046FFF78DFFF8BD2046FFF789FF65644A
:101C5000F8BD266B2023012E7DD1C6067BD5D60686
:101C600079D508684868009048694FF00206400638
:101C700041D5E16B086840680004000CE8D0A28DF3
:101C80008242E5D9E085C869B0F5807F2DD0206813
:101C90000C3050E8001F21F4807140E80012002A47
:101CA000F5D12068143050E8001F21F0010140E810
:101CB0000012002AF5D12068143050E8001F21F0EE
:101CC000400140E80012002AF5D184F84230256333
:101CD00020680C3050E8001F21F0100140E800128D
:101CE000002AF5D1E06BFEF779FD6663A08DE18DEA
:101CF000401A81B22AE0A08DE18D401A81B2E08DB8
:101D00000028A5D00029A3D022680C3252E8000F89
:101D100020F4907042E80007002FF5D120681430BD
:101D200050E8002F22F0010240E80027002FF5D1F3
:101D300084F84230256320680C3050E8002F22F0F0
:101D4000100240E80023002BF5D166632046FFF720
:101D500006FFF8BDFFE705062BD5150629D594F833
:101D600041002128F5D1A068B0F5805F01D120693C
:101D7000B0B1206A411C2162216800784860E08C83
:101D8000401E0004000CE084E3D12068C16821F00B
:101D90008001C1602068C16841F04001C160D8E79E
:101DA000206A0088C0F308004860206A801C206216
:101DB000E5E74006CDD55006CBD5CA68204622F0CF
:101DC0004002CA6084F8413000F07DF9C1E70000AC
:101DD000F93A000870B5040004D094F841000025D9
:101DE00010B106E0012070BD84F84050204600F09C
:101DF00023F8242084F841002068C16821F40051B0
:101E0000C160204601F008FF2068016921F490417B
:101E100001612068416921F02A0141612068C1689F
:101E200041F40051C1606564202084F8410084F8C9
:101E300042006563002070BDF0B587B004461421F0
:101E40006846FEF769FA3449DFF8C8C02368002401
:101E5000314A1039022503260827304863451FD12F
:101E6000136843F400231360126802F40022059201
:101E70000A6842F004020A60096802AB01F004013A
:101E80000591B102CDE9001583E8D0006946FEF75F
:101E900013FD00220F213420FEF7AEFE342035E082
:101EA000DFF87CC0634533D1136843F480131360BB
:101EB000126802F4801205920A6842F004020A6075
:101EC0000A6802F0040205920A6842F008020A60F9
:101ED000096802AB01F0080105914FF48051CDE98A
:101EE000001583E8D0006946FEF7E6FC0420CDE942
:101EF000000502AB694683E8D0000A48FEF7DCFC27
:101F000000220F213520FEF777FE3520FEF766FE12
:101F100007B0F0BD004C00404038024000080240CD
:101F200000500040000C024090F84230202B01D0BD
:101F30000220704721B11AB10023036301F0F2BE01
:101F40000120704770B500681D49884237D11D4C8B
:101F500000252046227881782AB14830012A08D00D
:101F6000022A15D10FE0AA2913D101202070657033
:101F70000FE062788154521CD0B26070042808D1FE
:101F80000220207005E0BB290BD00FA001F020FF3C
:101F90002570BDE870400B490122891C1148FFF7EC
:101FA000C3BF0188074B49BA4C3309B21980408836
:101FB00040BA02B25A800CA001F00AFFE8E770BDF7
:101FC000004C0040440000204672616D652045725F
:101FD000726F723A204D697373696E67205461693C
:101FE0006C0D0A000C030020256420202025640DC0
:101FF0000A0000002DE9F843044690F84100984695
:1020000016460D46202802D00220BDE8F88385B18F
:102010007EB100206064212084F84100FEF74EFD6F
:10202000A6848146E684A0682027B0F5805F02D0B0
:1020300003E00120E9E7206910B12E4600250EE0FB
:1020400000260CE08021204601F087FEA8B9C6B129
:1020500016F8010B21684860E08C401EE084E08C9B
:102060004B464FF00002CDF800800028EAD14FF037
:102070004001204601F071FE40B184F84170032018
:10208000C3E735F8020BC0F30800E3E784F84170BA
:102090000020BAE790F84130202B01D00220704791
:1020A00079B172B101628284C2840021416421212C
:1020B00080F841100068C16841F08001C1600020D3
:1020C0007047012070477047FEE70000164830EE69
:1020D000C00A164AD0ED080A90ED041A70EE600AA4
:1020E00060EE810A90ED051A41EE000A90ED071AA4
:1020F00070EE810A10EE901AC0ED070A914203DDDE
:10210000DFED0B0AC0ED070A10EE901A094A914262
:1021100003D9DFED090AC0ED070A80ED080ABDEE1C
:10212000E00A10EE100A7047440000200000FA4355
:102130000000FA430000FAC30000FAC3164830EE6C
:10214000C00A164AD0ED0B0A90ED041A70EE600A30
:1021500060EE810A90ED051A41EE000A90ED0A1A30
:1021600070EE810A10EE901AC0ED0A0A914203DD6A
:10217000DFED0B0AC0ED0A0A10EE901A094A9142EF
:1021800003D9DFED090AC0ED0A0A80ED0B0ABDEEA6
:10219000E00A10EE100A7047440000200000FA43E5
:1021A0000000FA430000FAC30000FAC3164830EEFC
:1021B000C00A164AD0ED0E0A90ED041A70EE600ABD
:1021C00060EE810A90ED051A41EE000A90ED0D1ABD
:1021D00070EE810A10EE901AC0ED0D0A914203DDF7
:1021E000DFED0B0AC0ED0D0A10EE901A094A91427C
:1021F00003D9DFED090AC0ED0D0A80ED0E0ABDEE30
:10220000E00A10EE100A7047440000200000FA4374
:102210000000FA430000FAC30000FAC3164830EE8B
:10222000C00A164AD0ED110A90ED041A70EE600A49
:1022300060EE810A90ED051A41EE000A90ED101A49
:1022400070EE810A10EE901AC0ED100A914203DD83
:10225000DFED0B0AC0ED100A10EE901A094A914208
:1022600003D9DFED090AC0ED100A80ED110ABDEEB9
:10227000E00A10EE100A7047440000200000FA4304
:102280000000FA430000FAC30000FAC370B501264B
:102290001A4C1B4D012812D0207848B1082128463D
:1022A000FEF702FC68B110212846FEF7FDFB40B1A5
:1022B00008212846FEF7F8FB012816D01CE02670FE
:1022C000ECE70A2001F0A8FE002020700821284633
:1022D000FEF7EAFB28B110212846FEF7E5FB10B116
:1022E0000AE0012070BD022070BD10212846FEF7D3
:1022F000DBFB012800D12670002070BDD400002037
:102300000010024000EE900A41421F4AB8EEE01A67
:1023100000EE901A00B592ED010AF8EEE00A02F024
:10232000BBFC00EE900A82ED010A174AB8EEE01AF3
:1023300000EE901A143292ED010AF8EEE00A02F073
:10234000ABFC00EE900A82ED010A0F4AB8EEE01AEB
:1023500000EE901A283292ED010AF8EEE00A02F03F
:102360009BFC00EE900A82ED010A074AB8EEE01AE3
:1023700000EE901A3C3292ED010AF8EEE00A02F00B
:102380008BFC82ED010A00BDE403002010B5204A59
:102390000021012001F04EFF1E4C1D4A0021A062C9
:1023A0001032012001F046FF194AE062FC3A002198
:1023B000194801F0B7FF164AE060D83A00211748E3
:1023C00001F0B0FF124A2061B43A0021144801F034
:1023D000A9FF0F4A6061903A0021124801F0A2FF64
:1023E0000B4AA0616C3A00210F4801F09BFF084A9C
:1023F000E061483A00210D4801F094FF044A206250
:10240000243A00210A4801F08DFF606210BD0000EF
:102410005462000800000020013600080530000862
:102420002533000815320008392E000891340008C1
:10243000B53600082DE9F04F87B014216846FDF746
:102440006BFF49480026016841F0100101600168F6
:1024500001F010010591016841F0800101600168FF
:1024600001F080010591016841F0040101600168FB
:1024700001F004010591016841F00101016001686A
:1024800001F001010591016841F00201016001685C
:1024900001F002010591016841F008010160006846
:1024A000324F00F008000590002227213846FEF741
:1024B00000FBDFF8BC8000220F214046FEF7F9FA4E
:1024C000DFF8B09000220C214846FEF7F2FADFF860
:1024D000A8A0002202215046FEF7EBFADFF89CB0DC
:1024E000002220215846FEF7E4FA02252720012485
:1024F00003958DE8510069463846FEF7DDF918204E
:10250000CDE90006694602943846FEF7D5F90F205A
:1025100003958DE8510069464046FEF7CDF90C2041
:10252000CDE900040327CDE9024769464846FEF796
:10253000C3F9CDE90046694650460294FEF7BCF95E
:10254000CDE90054CDE9024769465046FEF7B4F99B
:1025500020208DE83100694658460395FEF7ACF916
:1025600007B0BDE8F08F0000303802400010024094
:10257000000802400000024000040240000C02403B
:1025800010B592B000240F941C2168461094FDF7FA
:10259000C3FE202107A8FDF7BFFE3648344901607D
:1025A0005321C0E9011440F2E731C0E9031480214E
:1025B000C0E90541FFF721FA08B1FEF749F80F9489
:1025C0000FA92C481094FEF741FE08B1FEF740F821
:1025D00060200090C820CDE901040420CDE903402B
:1025E00005940022694623480694FFF7A0F908B134
:1025F000FEF72EF8042269461E48FFF798F908B145
:10260000FEF726F8082269461A48FFF790F908B144
:10261000FEF71EF80C2269461648FFF788F908B144
:10262000FEF716F80794089409944FF400500A94A2
:10263000CDE90B4007A90F480E94FEF7DDFD08B168
:10264000FEF706F800210B48FFF71AFA04210948A3
:10265000FFF716FA08210748FFF712FA0C21054880
:10266000FFF70EFA0348FFF71DF912B010BD000086
:10267000000001405C01002010B58CB024216846A8
:10268000FDF74AFE0024194809944FF080410A944E
:10269000C0E900144FF6FF71C0E902410461846192
:1026A0000320CDE900040120CDE902040494CDE922
:1026B0000540079469460D480894FEF7FFFE08B1EF
:1026C000FDF7C6FF099409A908480A94FEF7BEFD64
:1026D00008B1FDF7BDFF00210448FFF703F804210E
:1026E0000248FEF7FFFF0CB010BD0000A40100205F
:1026F00010B58CB024216846FDF70EFE0024194861
:10270000099417490A94C0E900144FF6FF71C0E913
:102710000241046184610320CDE900040120CDE978
:1027200002040494CDE90540079469460D480894D5
:10273000FEF7C4FE08B1FDF78BFF099409A909480B
:102740000A94FEF783FD08B1FDF782FF00210548DA
:10275000FEF7C8FF04210348FEF7C4FF0CB010BD0C
:1027600000040040EC01002010B58CB02421684624
:10277000FDF7D2FD00241948099417490A94C0E9CD
:1027800000144FF6FF71C0E9024104618461032027
:10279000CDE900040120CDE902040494CDE905400F
:1027A000079469460D480894FEF788FE08B1FDF7C6
:1027B0004FFF099409A909480A94FEF747FD08B19B
:1027C000FDF746FF00210548FEF78CFF0421034872
:1027D000FEF788FF0CB010BD000800403402002056
:1027E00010B58CB024216846FDF796FD00241948E9
:1027F000099417490A94C0E900144FF6FF71C0E923
:102800000241046184610320CDE900040120CDE987
:1028100002040494CDE90540079469460D480894E4
:10282000FEF74CFE08B1FDF713FF099409A909480A
:102830000A94FEF70BFD08B1FDF70AFF00210548D9
:10284000FEF750FF04210348FEF74CFF0CB010BD0B
:10285000000C00407C02002010B596B000240F94BC
:1028600010941194129413941C2108A81494FDF749
:1028700053FD20216846FDF74FFD2C482A49016091
:1028800040F28F61C0E9011440F2E731C0E903145E
:102890008021C0E90541FEF721FD08B1FDF7D8FE12
:1028A0004FF480500F900FA92048FEF799FD08B112
:1028B000FDF7CEFE1D48FFF7A0F808B1FDF7C8FEF2
:1028C000139413A919481494FEF7C0FC08B1FDF73E
:1028D000BFFE6020CDE9080404200A94CDE90B4036
:1028E0000D94002208A911480E94FFF720F808B1B2
:1028F000FDF7AEFE00944FF40050CDE90440029481
:1029000001940394694609480794FEF775FC08B1E1
:10291000FDF79EFE00210548FFF7B2F80348FEF7D9
:10292000C1FF16B010BD000000040140C402002029
:102930000C4810B50A4901604FF4E13141600021B3
:1029400081600C22C160C0E904128161C161FFF79E
:1029500041FA002803D0BDE81040FDF779BE10BD54
:10296000004C00400C0300200C4810B50A490160DF
:102970004FF4E1314160002181600C22C160C0E967
:1029800004128161C161FFF725FA002803D0BDE878
:102990001040FDF75DBE10BD005000405403002004
:1029A000FEE7FEE70020044902460A54401CC0B27C
:1029B0000928FAD370470000340400202DE9F84FAD
:1029C00001248246ADF800401D4800274770ADF84D
:1029D00000401C4E1C4D81464FF6FF7826E000BF9C
:1029E000BDF8001011EA0A0F02D0C6F8844201E0D7
:1029F000C6F88472C5F88C42032001F01BFBC5F8B1
:102A00008C72032001F016FBC5F88C42D6F8000248
:102A100030B199F80110BDF80020114389F8011078
:102A2000BDF8000008EA4000ADF80000BDF8000065
:102A3000FF28D5D9BDE8F84F102001F0FBBA0000FF
:102A400034040020008040420000404270B5FFF78F
:102A5000A9FF00F09BF80B480B4BB0F803100A4895
:102A6000203381800020012413F8105000F1010070
:102A70006D1E04FA05F20A42C0B202D01028F3D348
:102A8000002070BD340400209400002010B5154CC7
:102A90000020C4F88802102004F5227401F0CAFA5C
:102AA0000120FFF78BFF4320FFF788FF0020FFF78F
:102AB00085FF0120FFF782FF0020FFF77FFF002046
:102AC000FFF77CFF0020FFF779FF0020FFF776FF7C
:102AD0000020FFF773FF01202060BDE810401020A8
:102AE00001F0A8BA0000404210B5154C0020C4F80F
:102AF0008802102004F5227401F09CFA0120FFF7EF
:102B00005DFF4320FFF75AFF0020FFF757FF00202B
:102B1000FFF754FF5A20FFF751FF5A20FFF74EFFEF
:102B20005A20FFF74BFF5A20FFF748FF5A20FFF7C4
:102B300045FF01202060BDE81040102001F07ABA66
:102B40000000404210B5FFF781FF0E490E4AC861F0
:102B5000D379CB60137A0B6154794C6192798A6195
:102B60000122042801D1087848B18868002805D0DE
:102B7000762B03DA0878002800D10A7010BD8A602D
:102B8000F6E7000094000020340400202DE9FC4703
:102B900000248DF800400125ADF80450254EC6F8FC
:102BA0008842254F3878FFF709FF7878FFF706FF4E
:102BB00002208DF80000214FDFF884904FF6FF7857
:102BC00030E000BFADF8045020E000BFC6F88C52E2
:102BD000032001F02FFAC6F88C42032001F02AFAF4
:102BE000C6F88C52D7F8000250B19DF80010BDF81D
:102BF000042019F8011011439DF8002009F8021073
:102C0000BDF8041008EA4100ADF80400BDF8040066
:102C1000FF28DBD9102001F00DFA9DF80000401CC0
:102C20008DF800009DF800000928CBD3C6F8885223
:102C3000BDE8FC8700004042950000200080404233
:102C40003404002010B500F00DF800F00BF800F08F
:102C500009F8FFF71BFF00F027F8BDE81040FFF769
:102C600043BF000010B50F4C0020C4F888021020AC
:102C700004F5227401F0DEF90120FFF79FFE4220E7
:102C8000FFF79CFE0020FFF799FE0020FFF796FE5D
:102C90000020FFF793FE01202060BDE810401020C7
:102CA00001F0C8B90000404210B5144C0020C4F82F
:102CB0008802012004F52274FFF780FE4420FFF70C
:102CC0007DFE0020FFF77AFE0120FFF777FE03204C
:102CD000FFF774FE0020FFF771FE0020FFF76EFE85
:102CE0000020FFF76BFE0020FFF768FE0120206048
:102CF000BDE81040102001F09DB9000000004042E6
:102D00000A490128096808D048B102280AD00328D6
:102D10000AD0042805D1CA2002E0C42000E0F52032
:102D200048637047EB20FBE7A020F9E7C4020020CE
:102D30002DE9F047DFF8F490DFF8F4A03D4C1D4694
:102D400016460F465FEA00080CD5002204214846CB
:102D5000FDF7AFFE012211465046FDF7AAFEC8F16D
:102D600000000AE0012204214846FDF7A2FE0022ED
:102D700001215046FDF79DFE404621684863002F23
:102D80000DDA002201214846FDF793FE01220221BF
:102D90005046FDF78EFE2168784288630BE00122E1
:102DA00011464846FDF785FE002202215046FDF7F8
:102DB00080FE20688763002E0DDA0022022148463B
:102DC000FDF777FE012204215046FDF772FE2168CF
:102DD0007042C8630BE0012202214846FDF769FEFC
:102DE000002204215046FDF764FE2068C663002DD2
:102DF0000EDA002220214846FDF75BFE0122082161
:102E00005046FDF756FE216868420864BDE8F08729
:102E1000012220214846FDF74CFE002208215046A1
:102E2000FDF747FE20680564F0E70000001002404F
:102E3000000802405C0100206D4C00254FF4FA7B35
:102E40004FF0FF31A06A01F0C7F9606908B102F0E4
:102E50000DFA00231A4619461846FFF769FF0020AD
:102E6000FFF74EFF00231A4619461846FFF760FF8A
:102E7000584601F0D1F84FF42F794FF448785D4E61
:102E800040F2EE2715E0B84201D1012515E0484592
:102E900009D1594803461A461146FFF749FF4846EB
:102EA00001F0BAF8F1E77D231A4619461846FFF7F4
:102EB0003FFFB6F900004045E5D100231A46194608
:102EC0001846FFF735FF0120FFF71AFFC82001F071
:102ED000A3F8DFF82891002220214846FDF7E9FDFC
:102EE0004FF4577A40F25238012220214846FDF72C
:102EF000E0FDB6F90000404535D0504530D1012500
:102F00000020FFF7FDFE584601F086F84FF4967654
:102F100033461A4611460846FFF70AFF4FF4C870B9
:102F200001F07AF877423B461A4611460846FFF709
:102F3000FFFE4FF47A7001F06FF83B4631461A46B7
:102F40000846FFF7F5FE584601F066F800231A46DA
:102F500019461846FFF7ECFE0120FFF7D1FE02E00C
:102F6000B842C1D101250020A08002462021484658
:102F7000FDF79FFD6FF0C70003461A461146FFF7A5
:102F8000D7FE4FF49676304601F046F8C8231A462D
:102F900019461846FFF7CCFE304601F03DF80023F5
:102FA0001A4619461846FFF7C3FE642001F034F8AC
:102FB0000F4F00264FF0040817F106070C4987F859
:102FC00002800422891D0E48FFF764F8761CF6B2D1
:102FD0000A2EF3D315B10025606902E00120B87014
:102FE000206A08B102F0C0F8012001F0B9F827E723
:102FF0000000002090000020D4FEFFFF000C0240E3
:103000000C0300201CB56B4F6B4EDFF8B0816C4C8D
:10301000DFF8B0A1DFF8B0B14FF4AF79FFF792FD60
:10302000387800287ED0694D686908B102F01EF931
:10303000A86908B102F01AF9E86908B102F016F9B6
:10304000286A08B102F012F9686A08B102F00EF9B4
:103050005F4DD8F800002968CDE900015D4832686D
:1030600003685D4801685DA000F0B2FE286807288B
:1030700002D10120FFF744FE2868052802D1002074
:10308000FFF73EFE2868062802D10220FFF738FE2F
:103090002868082802D10320FFF732FE3168802912
:1030A00004D122680020506322689063D8F80000A1
:1030B0004546802804D122680020D063226810642D
:1030C000802919DA012204215046FDF7F2FC002282
:1030D00001215846FDF7EDFC2168C1F8349001222A
:1030E00011465046FDF7E5FC002202215846FDF747
:1030F000E0FC2168C1F83890306880281BDD002290
:1031000004215046FDF7D5FC012211465846FDF733
:10311000D0FC2168C1F83490002201215046FDF70F
:10312000C8FC00E041E0012202215846FDF7C1FC45
:103130002168C1F838902868802819DA0122022114
:103140005046FDF7B6FC002204215846FDF7B1FCBD
:103150002168C1F83C90012220215046FDF7A9FCCE
:10316000002208215846FDF7A4FC2168C1F84090D0
:103170002868802819DD002202215046FDF799FCBD
:10318000012204215846FDF794FC20684D46C0F802
:103190003C90002220215046FDF78BFC01220821A3
:1031A0005846FDF786FC20680564012000F0D8FF32
:1031B00034E7000094000020A4000020AC000020B0
:1031C0005C010020001002400008024000000020C6
:1031D000B0000020A8000020A00000205053325F63
:1031E0004C5825642020205053325F4C59256420D0
:1031F00020205053325F52582564202020505332F3
:103200005F525925642020205053325F4B45592589
:10321000640D0A00414D4FF4C877414C4FF0000A4D
:103220004FF47A784FF4FA794FF41676C7F1000B21
:103230004FF0FF31E06A00F0CFFF206A08B102F0E2
:1032400015F800231A4619461846FFF771FD404647
:1032500000F0E2FE0020FFF753FD642000F0DCFEEA
:103260002B461A4611460846FFF762FD384600F025
:10327000D3FE00231A4619461846FFF759FD484663
:1032800000F0CAFE33461A4611460846FFF750FDC5
:10329000304600F0C1FE00231A4619461846FFF7D3
:1032A00047FD642000F0B8FE0220FFF729FD00234F
:1032B0001A4619461846FFF73BFD484600F0ACFE9B
:1032C0002B461A4611460846FFF732FD384600F0F5
:1032D000A3FE39465A465B460846FFF729FD40469D
:1032E00000F09AFE00231A4619461846FFF720FD03
:1032F0000120FFF705FD0A490023891D1A4681F8C0
:1033000002A019461846FFF713FD606908B101F0E5
:103310002BFF012000F024FF8AE70000D4FEFFFF0E
:10332000000000200024DFF84CA1A346DFF84891FC
:10333000FDF7B2F9002220215048FDF7BAFB4D48B5
:103340005E46801D80F802B00120FFF7D9FC574689
:10335000DAF8200000F088FE032802D0386A01F075
:1033600085FFB9F902104FF416704D4681420FD116
:1033700084420DD000231A4619461846FFF7D8FCA0
:10338000642000F049FEB86A00F0A0FF6E802E8035
:10339000B5F902401CB1B4F5617F09D00BE0002300
:1033A0006E802E801A4619461846FFF7C1FC02E0CF
:1033B0000020FDF799F8B5F90200B0F5C87F54DA9E
:1033C000FDF71CF82E4DD5ED020A95ED000AFEF72B
:1033D0007DFE00EE100A2B4EB8EEC00A85ED010A04
:1033E000D6ED020A96ED000AFEF7A8FE00EE100ADE
:1033F000254FB8EEC00A86ED010AD7ED020A97ED17
:10340000000AFEF7D3FE00EE100ADFF88080B8EE67
:10341000C00A87ED010AD8ED020A98ED000AFEF70E
:10342000FDFE00EE100A4FF49670B8EEC00A88ED6B
:10343000010AFEF767FF98ED010ABDEEC00A10EE23
:10344000103A97ED010ABDEEC00A10EE102A96ED73
:10345000010ABDEEC00A10EE101A95ED010ABDEE8C
:10346000C00A10EE100AFFF763FC012000F078FE9E
:103470005EE700000000002090000020000C0240E9
:10348000E4030020F80300200C04002020040020A6
:10349000DFF8549140F28A2A4FF0010BDFF84C819B
:1034A000FDF7FAF85F4689F802B00120FFF728FC23
:1034B0004D4C0026A41F2670606900F0D5FD03283E
:1034C00002D0606901F0D2FEB8F9020045465045CD
:1034D0000CD100231A4619461846FFF729FC27701D
:1034E000E06A00F0F3FE6E802E801CE018B1B0F5AB
:1034F000617F09D012E000236E802E801A461946A3
:103500001846FFF715FC09E06088401C80B2608017
:103510003C2865D166800120FCF7E6FFB5F9020082
:10352000B0F5C87F5CDA6680B5F90200502801DD8D
:10353000642000E050206880FCF760FF2C4CD4ED44
:10354000020A94ED000AFEF7C1FD00EE100A294DB3
:10355000B8EEC00A84ED010AD5ED020A95ED000A25
:10356000FEF7ECFD00EE100A234EB8EEC00A85ED22
:10357000010AD6ED020A96ED000AFEF717FE00EEEC
:10358000100A1E4FB8EEC00A86ED010AD7ED020AF6
:1035900097ED000AFEF742FE00EE100A4FF4967017
:1035A000B8EEC00A87ED010AFEF7ACFE97ED010AFE
:1035B000BDEEC00A10EE103A96ED010ABDEEC00A4B
:1035C00010EE102A95ED010ABDEEC00A10EE101A99
:1035D00094ED010ABDEEC00A10EE100AFFF7A8FB39
:1035E000012000F0BDFD5BE70600002090000020F8
:1035F000E4030020F80300200C0400202004002035
:103600002B4C206908B101F031FE606908B101F06E
:103610002DFEA06908B101F029FEE06908B101F0B2
:1036200025FE206A08B101F021FE606A08B101F0B0
:103630001DFE0020FEF72AFEA8B3012801D00228B3
:1036400000D16070206908B101F08EFD606908B199
:1036500001F08AFDA06908B101F086FDE06908B1BA
:1036600001F082FD606A08B101F07EFD4FF4FA704E
:1036700000F0D2FC4FF4E17003461A461146FFF702
:1036800057FB4FF42F7000F0C7FCC8231A461946A9
:103690001846FFF74DFBC82000F0BEFCE06801F0C3
:1036A00091FC0020E060012000F05AFDA9E7000035
:1036B00000000020104C606900F0D6FC032808D000
:1036C0000D490422891D0D48FEF7E4FC0A2000F094
:1036D000A3FC206A00F0C8FC032808D00649042295
:1036E000891D0648FEF7D6FC0A2000F095FC012053
:1036F00000F036FDDFE70000000000200C03002092
:1037000010B54FF0E020006902F034FB012803D02F
:10371000BDE8104001F0ACBE10BD000030B593B064
:1037200030216846FCF7F8FD14210CA8FCF7F4FDE5
:103730001D480025016841F080510160006800F0DB
:10374000805011901948016841F48041016000687F
:10375000022400F4804011900120009000040190A8
:103760008001CDE9064008AA0420A82182E81300C0
:103770000B906846FDF77CFB08B172B6FEE70CA91A
:103780000F2081E831004FF4A0500F904FF480508B
:10379000109005210CA8FDF761FA002801D072B63F
:1037A000FEE713B030BD000040380240007000401A
:1037B0000248016841F470010160704788ED00E043
:1037C0000148FDF7D7BF0000A40100200148FDF724
:1037D000D1BF0000EC0100200148FDF7CBBF000085
:1037E000340200200148FDF7C5BF00007C02002024
:1037F0000148FDF7BFBF00009C030020F0B5026840
:10380000294C2A4D2A4E2B4F2B4B4FF0804CA04277
:1038100009D0604507D0A84205D0B04203D0B842D5
:1038200001D0984204D122F0700E4A6842EA0E029A
:10383000A0421BD0604519D0A84217D0B04215D085
:10384000B84213D0984211D01C4DA8420ED01C4D46
:10385000A8420BD01B4DA84208D01B4DA84205D052
:103860001A4DA84202D01A4DA84203D122F4407545
:10387000CA682A434D6922F080022A4302608A689E
:10388000C2620A688262A04201D0984201D10969ED
:103890000163012141610169C90703D0016921F078
:1038A00001010161F0BD0000000001400004004082
:1038B00000080040000C00400004014000400140AE
:1038C000004401400048014000180040001C004036
:1038D0000020004010B501F01F030121046A994047
:1038E0008C430462016A9A401143016210BD10B515
:1038F000846842EA032224F47F440A43224382601C
:1039000010BD826822F070020A4342F00701816014
:1039100070470000F0B5036A026A22F001020262F9
:1039200042688469124E24F073050C682C4323F01E
:1039300002058B682B430D4DA84201D0B04205D142
:1039400023F00807CB683B4323F00403A84201D0CF
:10395000B04205D14D6922F4407215438A692A4369
:1039600042608461496841630362F0BD0000014028
:1039700000040140F0B5026A036A23F010030362F9
:10398000436884690D6824F4E64444EA05248D689C
:1039900022F0200242EA05120F4D104EA84201D03B
:1039A000B04206D1CF6822F0800242EA071222F02C
:1039B0004002A84201D0B04207D14D6923F44063D0
:1039C00043EA85038D6943EA85034360846149685E
:1039D00081630262F0BD000000000140000401406C
:1039E000F0B5026A036A23F4807303624368C46912
:1039F00022F4007224F073050C68124E2C438D687B
:103A000042EA05220E4DA84201D0B04206D1CF684D
:103A100022F4006242EA072222F48062A84201D026
:103A2000B04207D14D6923F4405343EA05138D6931
:103A300043EA05134360C4614968C1630262F0BD93
:103A4000000001400004014030B5046A026A22F41B
:103A5000805202624268C3690D6823F4E64343EA78
:103A600005238D6824F4005444EA0534084DA84227
:103A700002D0084DA84204D14D6922F4804242EAA6
:103A800085124260C36149680164046230BD000070
:103A9000000001400004014010B5036A046A24F0EC
:103AA00001040462846924F0F00444EA021423F05F
:103AB0000A020A438461026210BD10B5036A046AF7
:103AC00024F010040462846923F0A00324F47044F9
:103AD00044EA023243EA01118261016210BD000032
:103AE0000148FEF73FB800000C0300200148FEF734
:103AF00039B800005403002010B5806B0021C18547
:103B0000C184FEF72DF810BD01680C3151E8002F7B
:103B100022F4907241E80023002BF5D101681431A2
:103B200051E8002F22F0010241E80023002BF5D1DB
:103B3000016B012909D101680C3151E8002F22F0F5
:103B4000100241E80023002BF5D1202180F842101B
:103B500000210163704708B590F84210222901D076
:103B6000022008BD82684FF480539A4201D1016956
:103B700021B1816A9A421BD04AB10AE00268816A87
:103B80005268C2F308020A80816A891C08E002694F
:103B900072B10268526802F07F020A70816A491CA1
:103BA0008162C18D491E0904090CC18503D01BE047
:103BB00002685268F1E70168CA6822F02002CA6010
:103BC0000168CA6822F48072CA6001684A6922F0FA
:103BD00001024A61202180F8421000214163026BFA
:103BE000012A03D0FEF7AEF9002008BD0163016889
:103BF0000C3151E8002F22F0100241E80023002B85
:103C0000F5D101680A68D20602D50A6849680091B0
:103C1000818DFDF7A4FFE7E770B5044600680169F0
:103C2000E26821F44051114301612169A068E26911
:103C300008436169114308432168CA6849F20C636B
:103C40009A430243CA6020684169A26921F4407125
:103C50001143416131492068884202D0304988428D
:103C600002D1FDF7C5F801E0FDF7B2F8E2690023E3
:103C7000192164253226B2F5004F626828D0A0FBD6
:103C80000101930F9200FCF7FDFA0146B0FBF5F03D
:103C90006FF01802504301EB800006EB0010B0FB00
:103CA000F5F000F0F002B1FBF5F002EB0012B1FB11
:103CB000F5F06FF01803584301EB800006EB00109D
:103CC000B0FBF5F000F00F0021681044886070BD73
:103CD000A0FB010192185B41FCF7D4FA0146B0FB4E
:103CE000F5F00201B1FBF5F06FF01803584301EB5A
:103CF000800006EBC000B0FBF5F000F0F80002EB2E
:103D00004002B1FBF5F0584301EB800006EBC00028
:103D1000B0FBF5F000F00700D6E70000001001400E
:103D20000014014081628285C28500214164222104
:103D300080F84210016921B10168CA6842F48072BA
:103D4000CA6001684A6942F001024A610068C168BC
:103D500041F02001C160002070472DE9F8439846EA
:103D600017460D460446089E24E0701C22D0FCF73E
:103D7000A5FEA0EB0800B0421AD8CEB12068C168F9
:103D8000490717D5802D15D0402D13D00168C943A0
:103D900009070FD401680025406800902046FFF70E
:103DA000B3FE0820606484F840500120BDE8F88329
:103DB0000320FBE72068006835EA000004D00020FB
:103DC000B842D2D00020F1E70120F9E7FEE7000079
:103DD0000FB4054B10B503A9044A029800F028F867
:103DE00010BC5DF814FB0000DD4000085801002005
:103DF0000907090E002804DB00F1E02080F8001418
:103E0000704700F00F0000F1E02080F8141D7047AB
:103E100002E008C8121F08C1002AFAD17047704793
:103E2000002001E001C1121F002AFBD170470000F1
:103E30002DE9FF4F8BB09A460F460546002606E057
:103E400025280BD052460D9990476D1C761C28787A
:103E50000028F5D10FB03046BDE8F08F0024A04611
:103E60000122604900E0044315F8013F203B02FABB
:103E700003F00842F7D128782E2817D115F8010F42
:103E800044F004042A280ED06FF02F022878A0F105
:103E9000300109290AD808EB880102EB410100EB47
:103EA00001086D1CF2E757F8048B6D1C287869280F
:103EB0003ED006DC0028CDD063280BD0642804D186
:103EC00036E0732810D075284BD052460D99904794
:103ED000761C85E017F8040B8DF8000000208DF8A3
:103EE0000100E946012003E057F8049B4FF0FF3042
:103EF00061074FF0000401D40AE0641C44450DDA68
:103F00008442FADB19F804100029F6D106E0641C9B
:103F10008442FCDB19F804100029F8D1264404E09F
:103F200019F8010B52460D999047641EF8D257E0DC
:103F300001CF4FF00A0B002802DA40422D2102E0A7
:103F4000210504D52B218DF82410012103E0E10780
:103F500005D02021F7E70DF1200908910CE00021A0
:103F6000F9E701CF4FF00A0BF9E75946FCF7DFF903
:103F700001F1300209F8012D0028F6D1ADEB09005E
:103F800000F1200B600701D44FF00108D84502DD95
:103F9000A8EB0B0000E000208046002406E009A802
:103FA0005246005D0D999047641C761C0898844227
:103FB000F5DB04E0302052460D999047761CB8F1AD
:103FC0000001A8F10108F5DC05E019F8010B5246E3
:103FD0000D999047761CBBF10001ABF1010BF4DCAD
:103FE0006D1C34E70928010010B504460420FDF7D4
:103FF000F5F8084804604FF47A7044434FF0E0202D
:10400000016941F0020101614461016941F001016E
:10401000016110BD4000002070B5054600244FF43A
:104020007A7603E0304600F005F8641CAC42F9D320
:1040300070BD000070B54FF0E024002265690949A9
:10404000A36909684843A1699942FCD002D2A3EB55
:10405000010302E0A5EB010633441A440B468242F9
:10406000F1D370BD400000202DE9F041040006D0DE
:10407000184E306884420AD10020BDE8F0815020FB
:1040800080F31188BFF34F8FBFF36F8FFEE700F00F
:104090006FFE6569776BB66B00F08AFEBD4201D09A
:1040A000B54201D10220E8E70B48854208D1A06A59
:1040B0000028F7D194F858000128F3D00320DCE75A
:1040C00005481438854202D00DB10120D5E70420FF
:1040D000D3E70000D80000203009002013B54FF6C8
:1040E000FF73012269460248FDF784FF00981CBD5A
:1040F00054030020FCF7F0FCA820FFF775FFFFF742
:104100000DFBFEF797F9FEF73BFAFEF7B5FAFEF75F
:104110000FFCFEF729FCFEF7EBFAFEF725FBFEF796
:104120005FFBFEF799FBFEF78DFD0A49C420096885
:1041300048634FF4FA60FCF7ADFB012206490748DB
:10414000FDF7F2FE00F01AF8FEF720F900F028F86B
:10415000FEE70000C4020020460000200C030020FF
:1041600010B5EFF3058111B16FF0050403E00024F1
:1041700008B100F001FF204610BD0000EFF30580FC
:1041800010B16FF0050070470448016811B14FF09D
:10419000FF30704701210160002070472801002096
:1041A00010B5EFF3058010B16FF0050010BD0848A1
:1041B0000168012902D04FF0FF3010BD054A0021EF
:1041C00082F8141D0221016001F00CF8002010BDDE
:1041D000280100200BE000E0F8B50D460024211F67
:1041E0004E1C002804D000BFEFF30582A2B10DB130
:1041F0000C461BE000216A46009101F01FFC0128DB
:1042000013D1009890B10A494FF080500860BFF375
:104210004F8FBFF36F8F09E0294601F05DFC012845
:1042200004D015B16FF0010400E034462046F8BD1B
:1042300004ED00E0F8B5144603460E464FF00005C5
:10424000EFF3058098BB93B39E423DD84CB1A06874
:104250000028E06803D0502836D3012002E008B1DE
:1042600032E00020012B05D010B31846A26801F0FF
:1042700032F920E040B103200090002211460120D5
:10428000A36801F069F904E003220021012001F094
:1042900042F9050018D086B100231A46194601F0EC
:1042A000D3F9012809D0284600F018FE00250BE0BC
:1042B000184601F0F3F8050006D00CB1216800E0C3
:1042C0000021284600F0F6FD2846F8BD38B5002448
:1042D000E51E00280BD000BFEFF30581A9B1002136
:1042E0000091694601F0BFFA012815D102E06FF094
:1042F000030412E0009880B109494FF08050086033
:10430000BFF34F8FBFF36F8F07E000231A461946A4
:1043100001F09AF9012800D02C46204638BD000053
:1043200004ED00E02DE9FF414FEA01034FF00005E5
:10433000EFF30581039549BB40B380271821002482
:104340004AB3166806B1344696691EB13146761EE8
:10435000382E02D21679F60703D0002004B0BDE84B
:10436000F081566906B1B708D2F808C0BCF1000F59
:104370000DD0D5685C2D18D312693AB136B18DE8ED
:1043800006103A46214601F0CAFC03900DE0D668BB
:104390005EB912694AB903AACDE90012BAB2214640
:1043A00001F090FC012800D003950398D6E70000A7
:1043B0002DE9F041134C0F460546E6682068001DC4
:1043C00000F07AFC681C07D137B12168BDE8F041E4
:1043D0000D48091D00F0C0BC20683544B542456059
:1043E000216805D2A06BBDE8F041091D00F09CBC1E
:1043F000606B091D00F098FCA06A854200D2A5629E
:10440000BDE8F081D8000020300900202DE9F041FE
:10441000054600F0ADFC2D4CA068401CA060206853
:104420002B4F10B1606930B32BE02560A0680128E4
:1044300027D1002606EB860007EB800000F066FC23
:10444000761C382EF6D3234800F060FC2148143047
:1044500000F05CFC1F48283000F058FC1D483C3040
:1044600000F054FC1B48503000F050FC19486063C9
:104470001430A06305E02068E96AC06A884200D869
:104480002560606A401C60626864E86A216988424D
:1044900000D9206100EB800007EB8000291D00F0AF
:1044A0005BFC00F085FC606900280CD02068E96A9C
:1044B000C06A884207D208494FF080500860BFF3B5
:1044C0004F8FBFF36F8FBDE8F0810000D800002050
:1044D00080040020E008002004ED00E038B500F082
:1044E00047FC104C2068C8B90F4800F00FFC0E487C
:1044F000143000F00BFC0C48E060143020610A4BD3
:104500000020F03B009003F1500210210A2001F03E
:1045100023F8206010B105A100F0CCFCBDE83840C4
:1045200000F046BC14010020340A0020546D725182
:104530000000000030B4026C0B46002A0BD0C168AA
:104540001144C1608468A14201D30168C16030BCDC
:104550001846FBF7C8BE30BC70472DE9F041856BAB
:10456000174604460026026C82B1C7B1E068FBF72B
:10457000BAFEE168206C091AE1602268914202D219
:10458000A168081AE060022F16D017E02068A8B9C9
:10459000A06801F067FC06460020A0600EE060689D
:1045A000FBF7A1FE216C606808446060A168884246
:1045B00004D32068606001E005B16D1E6D1CA56329
:1045C0003046BDE8F08110B5044690F8590058B166
:1045D00001280CD002280FD0502080F31188BFF39F
:1045E0004F8FBFF36F8FFEE7206B00F0F5FB204687
:1045F000BDE8104000F0F0BB10BD000010484FF4C3
:104600007051420706D0C01D0D4920F00700411A25
:10461000C1F570510B4A00230144C2E90003083977
:10462000183A21F0070111604B600B600B1AC0E9CA
:10463000001393604FF000405360506170470000DA
:104640001411002044010020144E154CA6F29C4782
:104650004FF08058DFF84C9012E000BF00F088FB6C
:10466000F068C568281D00F027FBA068401EA06008
:104670006068401E606000F09BFB2846FFF7A3FFC8
:1046800060680028EAD138680128F9D9C9F80080A3
:10469000BFF34F8FBFF36F8FF2E700001C090020BC
:1046A000D800002004ED00E070B51D46049C51B117
:1046B000C4F80020C4E90F010121204600F080FF6A
:1046C00084F84C5070BD2460F4E700002DE9F05FE1
:1046D0008846DDE90B941546834691009A460A9E6A
:1046E000A522206BFBF711FE6FF00301206B01EB9D
:1046F0008501084420F00707780707D0502080F391
:104700001188BFF34F8FBFF36F8FFEE70025B8F11D
:10471000000F0FD05FF00000221818F8001082F888
:10472000341018F8001011B1401C1028F4D384F88C
:10473000435001E084F83450382E00D33726E66227
:10474000C4E91365201D00F0ECFA04F1180000F034
:10475000E8FA2461C6F138006462A061656584F8F6
:10476000585052465946384600F080FA2060B9F158
:10477000000F01D0C9F80040BDE8F09F30B51149E5
:1047800000E011460A688242FBD34B685C18844201
:1047900003D1406818444860084643681C18944296
:1047A00009D1084C183C2468A24209D052681A4426
:1047B00042600A6812680260814200D0086030BD21
:1047C0000460F9E74401002070B5002441600B4DFE
:1047D0000061914206D8D11A8269914206D2011D28
:1047E000286907E09A4203D2994201D3012403E0E9
:1047F000011DE86800F098FA204670BD1401002001
:1048000010B5044600F0B4FAA06B28B15FF00004C4
:1048100000F0CEFA204610BD0124F9E730B589B08A
:104820003C4D6EE00498002806DADDE90601059AA1
:1048300090470498002864DB069C606910B1201D35
:1048400000F03AFA03A800F0D7F8024604980A28C4
:1048500057D2DFE800F00505052D334A05052D3355
:1048600094F8280040F0010084F828000599A06918
:10487000059B01442046FFF7A7FF68B3216A204645
:10488000884794F8280040073BD500200090059801
:10489000A169002342181946204601F029FCD8B925
:1048A000502080F31188BFF34F8FBFF36F8FFEE767
:1048B00014F8280F20F00100207022E094F828005E
:1048C00040F0010084F828000598A06128B1811803
:1048D00013462046FFF778FF13E0502080F311883D
:1048E000BFF34F8FBFF36F8FFEE794F82800810767
:1048F00003D4204600F070FA03E020F0010084F8B1
:104900002800002204A9286800F0FCFF002889D1B3
:1049100009B030BD140100202DE9FC410F460546C9
:1049200000F0F2FC01A800F067F80446019818B105
:1049300001F04CFBBDE8FC81254EAFB13069006849
:10494000D0B30027291B3A46306800F0F3FA01F093
:104950003DFB0028EED11F494FF080500860BFF3A7
:104960004F8FBFF36F8FE5E7A542EBD801F02EFB29
:10497000F0682746C068C468201D00F09DF994F8CF
:104980002800410719D5A0692B4641193A4620460F
:10499000FFF71AFFA8B100200346014600902A46FF
:1049A000204601F0A5FB60B9502080F31188BFF3C9
:1049B0004F8FBFF36F8FFEE707E020F0010084F810
:1049C0002800216A20468847B4E70127BAE700009B
:1049D0001401002004ED00E00648416B096829B18C
:1049E000416BC968C9684968816270474FF0FF31FF
:1049F000FAE70000D800002070B5054601F0C8F9BC
:104A0000064E0446B068844203D200F009F8012043
:104A100000E0002028602046B46070BD1401002032
:104A2000F8B5194D20E0C068C4680668201D00F084
:104A300043F9216A2046884794F82800400713D597
:104A4000A0693044B04206D924616060211DE86845
:104A500000F06AF908E00020034601460090324663
:104A6000204601F045FB38B1E86801680029DAD139
:104A70002969C5E90310F8BD502080F31188BFF300
:104A80004F8FBFF36F8FFEE7140100200848406886
:104A9000401C4FF0500080F3118804D0BFF34F8FBB
:104AA000BFF36F8FFEE7BFF34F8FBFF36F8FFEE74C
:104AB0004C010020002150B10A4B42699A420FD1AB
:104AC000806AA3F1280290420AD040B108E0502049
:104AD00080F31188BFF34F8FBFF36F8FFEE7012183
:104AE0000846704730090020074CE068016841B172
:104AF000C0680021D0F80000FFF70EFFFFF78EFE20
:104B0000F3E701210020F7E7140100202DE9F0412F
:104B1000044600F02DF994F9455004F1240609E00B
:104B2000606A48B1304601F019FA08B100F09AFA0B
:104B30006D1E6DB2002DF3DC4FF0FF3684F845603A
:104B400000F036F900F014F994F9445004F110071C
:104B500009E0206948B1384601F000FA08B100F0D8
:104B600081FA6D1E6DB2002DF3DC84F84460BDE85F
:104B7000F04100F01DB900002DE9F0410546002785
:104B800000F0C2FB324E306808B9FFF737FD70699C
:104B900005424ED1C5B3083568070ED005F00700B1
:104BA000C0F108000544680707D0502080F3118841
:104BB000BFF34F8FBFF36F8FFEE72DB37068854251
:104BC00037D82348183001460C6801E020460C46CF
:104BD0006168A94202D221680029F7D131688C426C
:104BE00027D007682168016060680837411B1029D9
:104BF0000FD96019420708D0502080F31188BFF305
:104C00004F8FBFF36F8FFEE713E041606560FFF7E2
:104C1000B5FD61687068401A7060B268904200D259
:104C2000B060706901430020C4E90001F068401CD5
:104C3000F06001F0CBF9780707D0502080F311889D
:104C4000BFF34F8FBFF36F8FFEE73846BDE8F081AB
:104C50002C0100200449086818B10868026D521C34
:104C60000265086870470000D800002010B5031FD7
:104C70004FF080741C601B1F21F001011960191F87
:104C8000044B0B6014390A60091F6FF002024438AC
:104C90000A6010BD8D4A0008B4EEE00AF1EE10FA89
:104CA00002D2B0EE600A7047B4EEC10AF1EE10FA1B
:104CB000F9DDB0EE410A7047D0E9013201699A602E
:104CC000D0E901235A604A68824201D182684A6071
:104CD000002202610868401E0860086870470000F2
:104CE000034B036003F15C00086080201060704794
:104CF0005C0A0020044B036003F15C0008604FF481
:104D00008070106070470000B80C002000F10801AE
:104D10004FF0FF32C0E90112C16001610021016062
:104D2000704700210161704730B50B685A1C02D0F2
:104D300000F1080202E0026904E022465468256896
:104D40009D42FAD953684B6099608A60516008614E
:104D50000168491C016030BD42684A6093688B60FD
:104D600093685960916008610168491C016070474F
:104D7000502080F31188BFF34F8FBFF36F8F0A4924
:104D80004868401C486001280CD10848006810F0B1
:104D9000FF0F07D0502080F31188BFF34F8FBFF370
:104DA0006F8FFEE7704700004C01002004ED00E02B
:104DB0000849486828B1401E486001D180F3118835
:104DC0007047502080F31188BFF34F8FBFF36F8F70
:104DD000FEE700004C01002070B500282AD0164DD7
:104DE000A0F1080460686969084207D1502080F387
:104DF0001188BFF34F8FBFF36F8FFEE722683AB180
:104E0000502080F31188BFF34F8FBFF36F8FFEE701
:104E10008843606000F078FA6068696808446860F8
:104E20002046FFF7ABFC2869401C2861BDE87040B4
:104E300001F0CCB870BD00002C0100204FF0E02044
:104E400000210161816105494FF47A720968B1FB63
:104E5000F2F1491E41610721016170473C000020C9
:104E600010B5FBF7F9F9114910280ED300F1E02035
:104E700090F8F0030A78904207D2502080F311880E
:104E8000BFF34F8FBFF36F8FFEE709480068896853
:104E900000F4E060884207D9502080F31188BFF306
:104EA0004F8FBFF36F8FFEE710BD00004C01002055
:104EB0000CED00E010B5084B002200BF53F8324063
:104EC0001CB1521C082AF9D310BD43F8321003EB71
:104ED000C201486010BD00004004002010B504006D
:104EE0000AD000F013F894F8460000280CD12046B0
:104EF000BDE81040FFF770BF502080F31188BFF36A
:104F00004F8FBFF36F8FFEE710BD0000084A0021EE
:104F100002EBC1035B68834206D1002042F83100F6
:104F200002EBC10148607047491C0829F0D3704763
:104F30004004002070B515460E460446FFF718FFE2
:104F400094F944100020491C01D184F8440094F9DC
:104F50004510491C01D184F84500FFF729FFA06BDB
:104F600028B92A46314604F1240000F099F8204679
:104F7000BDE87040FFF7CABD10B5020014D00F485D
:104F8000006B38B1502080F31188BFF34F8FBFF30F
:104F90006F8FFEE700F0B8F900211046FFF708FA1E
:104FA00001F014F8002807D105494FF0805008603F
:104FB000BFF34F8FBFF36F8F10BD0000D8000020EC
:104FC00004ED00E070B50546FFF7D2FE1E4C05B9B2
:104FD0002568281DFFF770FEA86A18B105F11800B2
:104FE000FFF76AFE606A401C60622068854207D154
:104FF000291D1648FFF7B0FE6068401C606007E09E
:10500000A068401EA0602846FFF7DDFAFFF7E4FC29
:10501000FFF7CEFE6069002814D02068854211D1C8
:10502000206B38B1502080F31188BFF34F8FBFF34E
:105030006F8FFEE706494FF080500860BFF34F8F37
:10504000BFF36F8F70BD0000D80000201C09002046
:1050500004ED00E002490A6A0260C96841607047D5
:10506000D800002001490120C8617047D800002005
:1050700010B50C4650B1094909681831FFF754FEC4
:105080002046BDE810400121FFF792B9502080F37F
:105090001188BFF34F8FBFF36F8FFEE7D80000205A
:1050A00070B514460D4668B10A4909681831FFF712
:1050B00053FE0CB14FF0FF3521462846BDE8704045
:1050C000FFF776B9502080F31188BFF34F8FBFF3FD
:1050D0006F8FFEE7D800002070B504003ED0226D2F
:1050E000A2B1E06C884200D30146E06A884235D024
:1050F000012A33D11A4D2A6894420FD1502080F3EF
:105100001188BFF34F8FBFF36F8FFEE7502080F3FE
:105110001188BFF34F8FBFF36F8FFEE7E162A26983
:10512000002A02DBC1F13801A1610E4E00EB8000C4
:10513000616906EB8000814210D1201DFFF7BCFDA4
:10514000E06A2969884200D9286100EB800006EBFB
:105150008000211DBDE87040FFF7FEBD70BD00005E
:10516000D80000208004002070B504002AD01A4D19
:10517000286884422ED0FFF7FBFD2046FFF79AFCFB
:10518000E0B1201DFFF798FDE06A2969884200D947
:105190002861124900EB800001EB8000211DFFF720
:1051A000DBFDE06A2968C96A884207D30C494FF0E1
:1051B00080500860BFF34F8FBFF36F8FBDE8704022
:1051C000FFF7F6BD502080F31188BFF34F8FBFF378
:1051D0006F8FFEE770BD0000D80000208004002023
:1051E00004ED00E030B587B00024039405AA04A9BB
:1051F00003A80494FFF774FDDDE903010094CDE9F1
:105200000110002315A11748059A00F088FD164DDE
:105210000028E8621FD000F03BFF012809D0401CA5
:1052200019D1502080F31188BFF34F8FBFF36F8FD8
:10523000FEE7502080F31188BFF34F8FBFF36F8FCD
:105240004FF0FF30A86201206861EC6007B0BDE854
:10525000304000F093B807B030BD000049444C45E1
:105260000000000049460008D800002070B5044640
:10527000FFF77EFD214D04B92C68201DFFF71CFDB2
:10528000A06A18B104F11800FFF716FD211D1C4893
:10529000FFF762FD94F858000026012801D184F838
:1052A0005860FFF785FD686928B1FFF761FDFFF7DA
:1052B00093FBFFF77DFD2868844213D1686990B1A4
:1052C000286B38B1502080F31188BFF34F8FBFF3A4
:1052D0006F8FFEE70B494FF080500860BFF34F8F90
:1052E000BFF36F8F70BD06480068A968884201D17E
:1052F0002E6070BDBDE8704000F00EB8D8000020F0
:105300003009002004ED00E00248016B491C0163F4
:1053100070470000D8000020164810B5016B11B18D
:105320000121C16110BD0021C1610169124A01E082
:10533000B9B1491E01EB810352F82330002BF7D09D
:1053400001EB810302EB830202F1080453685B68FE
:105350005360A34201D15B685360DA680260016167
:1053600010BD502080F31188BFF34F8FBFF36F8FB4
:10537000FEE70000D8000020800400201CB537485C
:105380000168374A914207D1502080F31188BFF35A
:105390004F8FBFF36F8FFEE700683149491E884287
:1053A00007D1502080F31188BFF34F8FBFF36F8F69
:1053B000FEE72C4908780190FF20087008788DF8E6
:1053C00000009DF800009DF8002000F0F0009042E1
:1053D00007D0502080F31188BFF34F8FBFF36F8F3A
:1053E000FEE79DF80000204C00F0500020700720E0
:1053F000A06005E09DF8002052008DF80020401EBE
:105400009DF800201206F5D4A060032807D0502094
:1054100080F31188BFF34F8FBFF36F8FFEE74FF418
:105420004070A060019808700C482030016841F479
:1054300070010160016841F070410160FFF7FEFCFE
:1054400000206060FAF7D0FE0848016841F0404152
:105450000160FAF7B5FE00201CBD000000ED00E081
:1054600071C20F4100E400E04C01002034EF00E085
:1054700010B5502080F31188BFF34F8FBFF36F8FAB
:1054800000F08CFC18B104494FF0805008600020F7
:1054900080F3118810BD000004ED00E010B50C464B
:1054A00048B184420FD9502080F31188BFF34F8F49
:1054B000BFF36F8FFEE7502080F31188BFF34F8F4B
:1054C000BFF36F8FFEE70222002100F024F80028CE
:1054D00000D0846310BD38B50C4648B184420FD962
:1054E000502080F31188BFF34F8FBFF36F8FFEE71B
:1054F000502080F31188BFF34F8FBFF36F8FFEE70B
:105500000221134600220091114600F025F80028E0
:1055100000D0846338BDF8B517460E46050013D099
:1055200005FB06F05030FFF727FB04000AD00020EF
:1055300084F8460004F150023B4631462846009468
:10554000FFF7B2F82046F8BD502080F31188BFF372
:105550004F8FBFF36F8FFEE738B5049D18B153B17D
:10556000CAB181B120E0502080F31188BFF34F8F82
:10557000BFF36F8FFEE7502080F31188BFF34F8F8A
:10558000BFF36F8FFEE7502080F31188BFF34F8F7A
:10559000BFF36F8FFEE739B1502080F31188BFF35E
:1055A0004F8FBFF36F8FFEE750241C46012384F812
:1055B00046302B460094FFF777F8204638BD0000B0
:1055C00070B50D46040025D0FFF7D2FBD4E90F20BB
:1055D000216802FB0011A1600021A16321686160C4
:1055E0000A46D4E90F01401E00FB0121E16021467B
:1055F0004FF0FF3001F8440F487004F110008DB1F6
:10560000FFF784FB04F12400FFF780FBFFF7D0FBDA
:10561000012070BD502080F31188BFF34F8FBFF37E
:105620006F8FFEE721690029F0D000F097FC002879
:10563000ECD004494FF080500860BFF34F8FBFF3A8
:105640006F8FE3E704ED00E02DE9FF4782B01D46D0
:105650008A464FF00008040003D0BAF1000F08D0CA
:1056600011E0502080F31188BFF34F8FBFF36F8F8D
:10567000FEE7206C38B1502080F31188BFF34F8FC4
:10568000BFF36F8FFEE7022D0AD1E06B012807D030
:10569000502080F31188BFF34F8FBFF36F8FFEE769
:1056A00000F068FB3F4F4FF000094FF0805648B9BB
:1056B000049838B1502080F31188BFF34F8FBFF3A7
:1056C0006F8FFEE7FFF754FBA06BE16B884207D3B7
:1056D000022D05D00498D0B1B8F1000F1AD01EE009
:1056E0002A4651462046FEF738FF616A19B104F197
:1056F000240000F033FC20B13E60BFF34F8FBFF3B6
:105700006F8FFFF755FB012006B0BDE8F087FFF76C
:105710004FFB22E06846FFF79DFC4FF00108FFF7C2
:1057200047FBFFF7F1FDFFF723FB94F94400401C12
:1057300001D184F8449094F94500401C01D184F8CB
:105740004590FFF735FB04A9684600F081FA30B1B7
:105750002046FFF7DBF900F039FC0020D4E7FFF723
:1057600007FBA06BE16B884213D1FFF721FB04F12B
:1057700010000499FFF77CFC2046FFF7C7F900F002
:1057800025FC00289ED13E60BFF34F8FBFF36F8F83
:1057900098E7FFF70DFB2046FFF7B8F900F016FC7D
:1057A00090E7000004ED00E02DE9F0471F46904629
:1057B0008946040003D0B9F1000F08D011E0502051
:1057C00080F31188BFF34F8FBFF36F8FFEE7206C1C
:1057D00038B1502080F31188BFF34F8FBFF36F8F24
:1057E000FEE7022F0AD1E06B012807D0502080F39A
:1057F0001188BFF34F8FBFF36F8FFEE7FFF730FBCA
:105800005020EFF3118680F31188BFF34F8FBFF361
:105810006F8FA06BE16B884206D3022F04D000206B
:1058200086F31188BDE8F08794F94550A06B3A469D
:1058300049462046FEF791FE681C04D06D1C84F892
:1058400045500120ECE7606A0028FAD004F12400FA
:1058500000F084FB0028F4D0B8F1000FF1D0012152
:10586000C8F80010EDE770B50E46040009D0206CB2
:1058700078B1502080F31188BFF34F8FBFF36F8F43
:10588000FEE7502080F31188BFF34F8FBFF36F8F77
:10589000FEE7206848B9A06838B1502080F311882D
:1058A000BFF34F8FBFF36F8FFEE7FFF7D9FA50209A
:1058B000EFF3118580F31188BFF34F8FBFF36F8F24
:1058C000A16BE06B884218D994F94500491CA1638B
:1058D000411C04D0401C84F8450001200EE0606AA1
:1058E0000028FAD004F1240000F038FB0028F4D09E
:1058F000002EF2D001203060EFE7002085F3118800
:1059000070BD00002DE9F747002683B08A460400E9
:1059100003D0BAF1000F08D011E0502080F31188B5
:10592000BFF34F8FBFF36F8FFEE7206C38B150206D
:1059300080F31188BFF34F8FBFF36F8FFEE700F046
:1059400019FADFF8F4804FF000094FF0805748B99A
:10595000059838B1502080F31188BFF34F8FBFF303
:105960006F8FFEE7FFF704FAA56BC5B151462046DD
:10597000FEF7E0FD6D1EA563206950B104F1100033
:1059800000F0ECFA28B1C8F80070BFF34F8FBFF3F6
:105990006F8FFFF70DFA012006B0BDE8F08705987C
:1059A00008B11EB106E0FFF703FA27E06846FFF7EB
:1059B00051FB0126FFF7FCF9FFF7A6FCFFF7D8F92A
:1059C00094F94400401C01D184F8449094F94500B6
:1059D000401C01D184F84590FFF7EAF905A9684613
:1059E00000F036F9002820460AD0FFF78FF800F0C3
:1059F000EDFA2046FEF704FF0028B3D00020CBE7E5
:105A0000FEF7FEFE90B104F124000599FFF730FB8C
:105A10002046FFF77BF800F0D9FA0028A2D1C8F899
:105A20000070BFF34F8FBFF36F8F9BE72046FFF7E8
:105A30006DF800F0CBFA95E704ED00E02DE9F047B2
:105A400090468946040003D0B9F1000F08D011E058
:105A5000502080F31188BFF34F8FBFF36F8FFEE7A5
:105A6000206C38B1502080F31188BFF34F8FBFF303
:105A70006F8FFEE7FFF7F4F95020EFF3118680F304
:105A80001188BFF34F8FBFF36F8FA76BF7B194F9F6
:105A9000445049462046FEF74DFD7F1EA763681C13
:105AA00004D06D1C84F84450012010E020690028C7
:105AB000FAD004F1100000F051FA0028F4D0B8F147
:105AC000000FF1D00121C8F80010EDE7002086F3A7
:105AD0001188BDE8F08700002DE9F343002683B06C
